:1000000036C050C04FC04EC04DC04CC04BC04AC09F
:1000100049C048C047C046C045C044C043C042C0B4
:1000200041C040C03FC07BC076C071C06CC044C0FE
:1000300043C042C041C040C03FC03EC03DC03CC0C4
:100040003BC03AC039C038C037C036C035C034C0F4
:1000500033C032C031C030C02FC02EC02DC02CC024
:100060004EC049C044C03FC03AC035C030C0112462
:100070001FBECFE5D4E0DEBFCDBF10E0A0E6B0E00C
:10008000ECE5F3E102C005900D92AC3FB107D9F762
:1000900011E0ACEFB0E001C01D92A830B107E1F76C
:1000A00042D05AC9ADCF20B32F3F31F08CE792E94F
:1000B0000197F1F780B38213089590E0FC01EB5DA6
:1000C000F040E432F105C0F7ED5EFF4F099481E0A6
:1000D0008093FD00089583E08093FD00089585E0FE
:1000E0008093FD00089586E08093FD00089588E0E8
:1000F0008093FD0008958AE08093FD0008958CE0D0
:100100008093FD00089581E08093FE00089582E0D1
:100110008093FE00089583E08093FE00089584E0BC
:100120008093FE0008950F931F938FEF82BB82B3DD
:1001300085BB85B388BB1092FD008CE084BBAB9A75
:10014000AA9881E090E0F3D28823C9F02CE43DE145
:1001500049E150E0CA010197F1F721503040D1F751
:1001600089D012E308E041D19EDF78D6115085B3E3
:10017000802785BB1123B9F78091FF0005D080E06F
:1001800090E01F910F9108951F93982F16BE8FEF47
:1001900085BB8CE084BBAB98AA98983009F43BC02F
:1001A000989936C0892F90E015BAE0E5F3EC3197C5
:1001B000F1F7A0E0B0E060E573EC18E049E150E051
:1001C00020E030E015BBFB013197F1F715BAFB01D8
:1001D0003197F1F72F5F3F4F2817390799F72CE434
:1001E0003DE1FA013197F1F721503040D1F71196F6
:1001F000A330B10529F785B78F78806285BF85B7B1
:10020000806885BF889585B78F7785BF1F910895D2
:1002100085E090E0C9CF60E070E0E4E049E150E0C3
:10022000E5BB20E137E2CA010197F1F721503040E8
:10023000D1F715BA6F5F7F4F6330710589F7DBCF58
:1002400080E090E033E008C0232F2A95F1F7019673
:1002500021E0843F920739F006B607FEF5CF20E093
:1002600030E0C901089581E08093FF0021E030E093
:10027000C901089511B880E180B984E086BF109269
:10028000FF0008958091FF008823C9F484EA86BFA7
:1002900080E090E033E008C0232F2A95F1F7019623
:1002A00021E0843F920761F006B607FEF5CF81B1E9
:1002B000883029F0803119F086E08093FF0008959E
:1002C00081E08093FF00089584E986BF0895982F08
:1002D0008091FF008823C1F493B984E886BF80E051
:1002E00090E033E008C0232F2A95F1F7019621E032
:1002F000843F920751F006B607FEF5CF81B18832F0
:1003000019F081E08093FF00089581E08093FF0061
:10031000F5CF982F8091FF008823D1F493B984E81A
:1003200086BF80E090E033E008C0232F2A95F1F7E4
:10033000019621E0843F920761F006B607FEF5CFF3
:1003400081B1883129F0803419F083E08093FF0077
:10035000089581E08093FF0008958091FF00882335
:10036000F1F484EC86BF80E090E033E008C0232FF6
:100370002A95F1F7019621E0843F920769F006B6CD
:1003800007FEF5CF81B1803529F0883519F081E07D
:100390008093FF0083B1089581E08093FF0080E0A7
:1003A00008958091FF008823F1F484E886BF80E0FF
:1003B00090E033E008C0232F2A95F1F7019621E061
:1003C000843F920769F006B607FEF5CF81B180350C
:1003D00029F0883519F081E08093FF0083B10895FA
:1003E00081E08093FF0080E008951092FF0041E0DB
:1003F00050E0F4EA33E0A0EAB4E8E4E968EA71E640
:10040000F6BF80E090E008C0232F2A95F1F701960F
:1004100021E0843F920769F106B607FEF5CF81B16E
:10042000883031F0803121F086E08093FF0008951C
:10043000A3B9B6BF80E090E008C0232F2A95F1F75A
:10044000019621E0843F920719F006B607FEF5CF2A
:1004500081B1883191F0803481F04F5F5F4FE6BF0A
:10046000CB010197F1F74832510551F683E08CDE5C
:10047000089581E08093FF00089584E986BF84EDAC
:1004800090E30197F1F70895CF93DF93EC01FADE43
:10049000CF3FD10509F068F480EA3BDFCE0117DFDA
:1004A000F1DE81EA36DF7DDF94E996BFDF91CF91FF
:1004B000089582EA2EDFF2CF0F931F93CF93DF933D
:1004C000EC018B01DFDECF3FD105E9F0E0F082EAFD
:1004D00020DFCE01FCDED6DE81EA1BDFC0E0D0E00B
:1004E0003CDFF801EC0FFD1F80832196C730D1055A
:1004F000B9F757DFF801878384E986BFDF91CF9191
:100500001F910F91089580EA04DFE3CF1F93CF93EB
:10051000DF93EC01162FB6DECF3FD105B1F0A8F086
:1005200082EAF7DECE01D3DE812F90E0D0DE84E9CF
:1005300086BF82EE94E00197F1F78091FF00882357
:1005400039F0DF91CF911F91089580EAE2DEEACF82
:10055000CE019ADF8117A9F384E08093FF00DF9139
:10056000CF911F910895CF92DF92EF92FF920F9358
:100570001F93DF93CF93CDB7DEB728970FB6F894CC
:10058000DEBF0FBECDBF7C01162FD42EC22E7ADE69
:100590008FEFE816F10451F148F182EABADEC701A3
:1005A00096DE812F90E093DE8D2D90E090DE8C2DF5
:1005B00090E08DDE802F90E08ADE84E986BF82EEB7
:1005C00094E00197F1F78091FF00882391F028963D
:1005D0000FB6F894DEBF0FBECDBFCF91DF911F9154
:1005E0000F91FF90EF90DF90CF90089580EA91DE19
:1005F000D6CFC701BE016F5F7F4F5EDF8981811754
:1006000019F084E08093FF008A818D1519F084E051
:100610008093FF008B818C1519F084E08093FF009C
:100620008C818017A1F284E08093FF00D0CFCF921D
:10063000DF92EF92FF920F931F93DF93CF93CDB78B
:10064000DEB728970FB6F894DEBF0FBECDBF6C01A2
:100650007B0118DE8FEFC816D10459F150F182EA00
:1006600058DEC60134DE00E010E0F701E00FF11FB4
:10067000808190E02CDE0F5F1F4F08301105A9F735
:1006800084E986BF82EE94E00197F1F78091FF0044
:10069000882391F028960FB6F894DEBF0FBECDBF29
:1006A000CF91DF911F910F91FF90EF90DF90CF904E
:1006B000089580EA2EDED5CFC6018E010F5F1F4F51
:1006C000B801FADE20E030E005C02F5F3F4F283050
:1006D000310501F3F701E20FF31FD801A20FB31F99
:1006E00090818C91981789F384E08093FF00D2CF9A
:1006F000AC0120E030E0E199FECF7FBB6EBBFA0198
:10070000E20FF31F80818DBBE29AE19A2F5F3F4F8A
:100710002830310519F06F5F7F4FEDCF0895E199D3
:10072000FECF7FBB6EBB8DBBE29AE19A0895E19943
:10073000FECF9FBB8EBBE09A8DB308956F927F92E0
:100740008F929F92AF92BF92CF92DF92EF92FF92E1
:100750000F931F93DF93CF93CDB7DEB7C850D2402E
:100760000FB6F894DEBF0FBECDBF00E010E03E0133
:100770000894611C711C89E0882E912C8C0E9D1EA2
:10078000C801B30199DEF401E00FF11F6301D60146
:100790008D916D018193A815B905C9F7085F1F4FA9
:1007A000B2E000301B0761F7AA24BB24C501B301E6
:1007B00083DE8091FF00882309F053C07401EA0CA6
:1007C000FB1C8301F7019081D8018C91981711F0DF
:1007D00084E0DADC0894E11CF11C0F5F1F4F0C155C
:1007E0001D0581F7E8E0F0E0AE0EBF1EF0E0AF16A9
:1007F000F2E0BF06D9F68091FF00882391F528EF3B
:1008000031E0E199FECF3FBB2EBBF901E859F14041
:1008100080818DBBE29AE19A81E02F3F3807B9F1E0
:100820002F5F3F4FEECF485F5F4F92E04030590758
:10083000C1F500E010E0F401E00FF11FE081E19963
:10084000FECF1FBB0EBBE09A8DB3E81711F084E01A
:100850009BDC0F5F1F4FA2E000301A0761F788E0B2
:1008600093DCC85FDD4F0FB6F894DEBF0FBECDBF7F
:10087000CF91DF911F910F91FF90EF90DF90CF907C
:10088000BF90AF909F908F907F906F90089588E079
:1008900084BB85BB88EA91E60197F1F715BA40E081
:1008A00050E0D401A40FB51FF3018D918193EC1595
:1008B000FD05D9F7F3019A01E199FECF3FBB2EBBAD
:1008C00081918DBBE29AE19ACE16DF0609F4ABCF97
:1008D0002F5F3F4FF1CFCF92DF92EF92FF920F93B6
:1008E0001F93DF93CF93CDB7DEB760970FB6F89421
:1008F000DEBF0FBECDBF90E028EF31E0F901E8592F
:10090000F140E081E199FECF3FBB2EBBE09A8DB371
:10091000E81709F496C02F5F3F4F82E02030380778
:1009200069F7983009F4AEC080E090E07E01089449
:10093000E11CF11CB701C0DD90E020E030E0F701E0
:10094000E20FF31FE081E199FECF3FBB2EBBE09A9F
:100950008DB3E81709F473C02F5F3F4F283031057E
:1009600071F7983029F08091FC00882309F46BC05E
:1009700000E010E020E030E0E199FECFC901800FF7
:10098000911F9FBB8EBBE09A8DB3F701E20FF31F5F
:1009900080832F5F3F4F2830310571F7C801B701C1
:1009A00046DE8091FF008823D9F5085F1F4F92E053
:1009B00000301907F9F6EE24FF2499E0C92ED12C56
:1009C000CC0EDD1EC701B60177DD8091FF008823C4
:1009D00039F500E010E0F601E00FF11FE081E19948
:1009E000FECFC8018E0D9F1D9FBB8EBBE09A8DB3BD
:1009F000E81711F084E0C8DB0F5F1F4F08301105C6
:100A000051F788E090E0E80EF91E90E0E91692E0D8
:100A1000F906C1F68091FF00882311F488E0B4DB69
:100A200060960FB6F894DEBF0FBECDBFCF91DF91B9
:100A30001F910F91FF90EF90DF90CF9008959F5FEF
:100A40008BCF9F5F68CF28E024BB25BB84E294EF67
:100A5000FC013197F1F715BAFC013197F1F724BB8E
:100A600025BB0197F1F715BA20E23EE449E150E0D9
:100A7000CA010197F1F721503040D1F781E080930E
:100A8000FC0076CF82E080DB4FCFDC01FB0102C0AF
:100A9000119631969081992329F08C919817C1F382
:100AA00080E0089581E00895EF92FF920F931F93E5
:100AB0007C010894E11CF11CE091FE00F0E031970C
:100AC00002EE10E0EE0FFF1FEE0FFF1FE00FF11F11
:100AD00060811CDDE091FE00F0E03197EE0FFF1F1A
:100AE000EE0FFF1FE00FF11FC70161810FDD809145
:100AF000FE0090E0880F991F880F991F0297080F3A
:100B0000191FC7010196F801608100DD1F910F9147
:100B1000FF90EF900895CF93DF93EC01B5DC6091E7
:100B2000FD00662329F0882399F4C032D10591F0A5
:100B3000882331F4C032D10529F0DF91CF91089597
:100B40008330D8F7CE0163E0E1DCDF91CF910895E7
:100B50008D3058F7CE01DADCDF91CF910895EF9216
:100B6000FF920F931F93DF93CF93CDB7DEB72897F4
:100B70000FB6F894DEBF0FBECDBF80E090E07E01DF
:100B80000894E11CF11CB70197DCABE7B0E0F7017A
:100B900002C0319611969C919923C1F180818917E9
:100BA000C1F380E090E0B70187DCA0E8B0E0F70196
:100BB00002C0319611969C919923E1F180818917A9
:100BC000C1F380E090E0B70177DCA8ECB0E0F7017A
:100BD00002C0319611969C91992309F440C08081FE
:100BE0008917B9F38091FF00882369F028960FB622
:100BF000F894DEBF0FBECDBFCF91DF911F910F9153
:100C0000FF90EF90089585E0BFDAF0CF84E090E0A8
:100C10004BDF88E590E0B7014FDCABE7B0E0F701D0
:100C200002C0319611969C91992399F18081891780
:100C3000C1F3B7CF85E090E037DF88E590E0B701FA
:100C40003BDCA0E8B0E0F70102C0319611969C9120
:100C5000992309F454C080818917B9F3B2CF85E094
:100C600090E022DF80E190E0B70126DCA8ECB0E064
:100C7000F70102C0319611969C91992309F443C063
:100C800080818917B9F38091FF00882309F0AECFE6
:100C9000BACF8CE590E008DF00E810E0C801B701AA
:100CA0000BDCABE7B0E0F70102C0319611969C91E6
:100CB000992309F180818917C1F3C801885A9F4F90
:100CC000B701FADBABE7B0E0F70102C0319611964D
:100CD0009C91992359F080818917C1F381E00038F4
:100CE000180709F483CF00581F4FD8CFC801845A82
:100CF0009F4FDADEF3CFC8010496D6DEDECF8DE556
:100D000090E0D2DE73CF85E190E0CEDE6FCFCF9260
:100D1000DF92EF92FF920F931F93DF93CF93CDB7A4
:100D2000DEB728970FB6F894DEBF0FBECDBF7C01AB
:100D30008E010F5F1F4FB801BFDBA9E6B0E0F801DD
:100D400002C0319611969C91992389F08081891770
:100D5000C1F3AEE6B0E0F80102C0319611969C9165
:100D6000992329F080818917C1F385E00DDA5EE0CF
:100D7000C52ED12CCE0CDF1CC60186DB182F8FE0D0
:100D800090E0E80EF91EC7017FDB082F0F5F8F523E
:100D90008A3010F01F5F00E3812F80538A3008F003
:100DA00010E3C601612FB2DBC701602FAFDB2896CD
:100DB0000FB6F894DEBF0FBECDBFCF91DF911F916C
:100DC0000F91FF90EF90DF90CF9008950F9380E206
:100DD00090E05ADB8130A9F0833099F08530D1F072
:100DE000863099F1883041F18A30E9F08C3039F45D
:100DF00080E490E06DE74BE225E700E0B4DB0F9183
:100E0000089580E490E06AE14AEA22E00CE3ABDB7B
:100E10000F91089580E490E06CE244EB27E100E854
:100E2000A2DB0F91089580E490E06DE549E629E3A7
:100E300006EB99DB0F91089580E490E06AE44AEBB9
:100E400024E902E990DB0F91089580E490E06EE3DD
:100E50004AE22AEC00EE87DB0F910895EF92FF92B1
:100E60000F931F93DF93CF93CDB7DEB728970FB6BD
:100E7000F894DEBF0FBECDBF8091FE00882309F03D
:100E8000AEC180E090E08E010F5F1F4FB80114DB10
:100E9000A3E7B0E0F80102C0319611969C91992326
:100EA00041F180818917C1F3A6E8B0E0F80102C0E2
:100EB000319611969C919923E1F080818917C1F3B5
:100EC000AAE9B0E0F80102C0319611969C919923ED
:100ED00081F080818917C1F3A8ECB0E0F80106C069
:100EE0008081891709F045C0319611969C9199230C
:100EF000B9F780E190E0B801DFDAA3E7B0E0F801EC
:100F000002C0319611969C91992339F180818917FD
:100F1000C1F3A6E8B0E0F80102C0319611969C91A9
:100F20009923D9F080818917C1F3AAE9B0E0F801CB
:100F300002C0319611969C91992379F0808189178E
:100F4000C1F3A8ECB0E0F80105C08081891789F4ED
:100F5000319611969C919923C1F780E690E094DA3E
:100F6000882309F447C180E690E08EDA8F3F09F4C8
:100F7000A6C180E090E0B8019FDAA2ECB0E0F801F1
:100F800002C0319611969C91992309F487C1808102
:100F90008917B9F380E090E0B8018EDAABE7B0E0F2
:100FA000F80102C0319611969C91992309F45AC018
:100FB00080818917B9F3A0E8B0E0F80102C031964A
:100FC00011969C91992309F44DC080818917B9F33A
:100FD000A1EAB0E0F80102C0319611969C919923E4
:100FE00009F440C080818917B9F3A9EAB0E0F8019B
:100FF00002C0319611969C919923A1F180818917A5
:10100000C1F3A1EBB0E0F80102C0319611969C91BA
:10101000992341F180818917C1F3AAEBB0E0F8016F
:1010200002C0319611969C919923E1F08081891735
:10103000C1F3A5EDB0E0F80102C0319611969C9184
:10104000992381F080818917C1F3ADEDB0E0F801FB
:1010500006C08081891709F0C6C0319611969C910F
:101060009923B9F780E390E052DE80E290E053DD0F
:101070008EE390E009DAE82E8FE390E005DAF82EAF
:1010800080EB90E0B80118DAA9E6B0E0F80102C000
:10109000319611969C91992309F491C0808189170A
:1010A000B9F3AEE6B0E0F80102C0319611969C911A
:1010B000992309F484C080818917B9F380E391E012
:1010C000B801FAD9A9E6B0E0F80102C0319611964C
:1010D0009C91992309F46AC080818917B9F3AEE61F
:1010E000B0E0F80102C0319611969C91992309F461
:1010F0005DC080818917B9F380EB91E0B801DCD93C
:10110000A9E6B0E0F80102C0319611969C919923AE
:1011100009F443C080818917B9F3AEE6B0E0F80165
:1011200002C0319611969C919923B9F1808189175B
:10113000C1F388E490E060E071E079DA80E590E066
:1011400060E071E074DA80E690E060E071E06FDA10
:1011500084E790E060E0DAD985E790E060E0D6D9F6
:1011600086E790E060E0D2D987E790E060E0CED9F2
:1011700088E790E060E0CAD98091FF00882389F178
:1011800028960FB6F894DEBF0FBECDBFCF91DF918A
:101190001F910F91FF90EF9008958EEB91E06E2DCF
:1011A000B5D98FEB91E06F2DB1D9C3CF8EE391E02C
:1011B0006E2DACD98FE391E06F2DA8D99DCF80EA39
:1011C00090E0A9DC8EEB90E06E2DA0D98FEB90E043
:1011D0006F2D9CD987ED90E060E098D96FCFBFDC90
:1011E00050CE88E0D1D78091FF00882349F685E072
:1011F000CBD7C6CF80E290E08EDC80E390E087DD45
:10120000E5DD80E590E060E081D981E590E060E097
:101210007DD982E590E060E079D983E590E060E0F7
:1012200075D980E790E030D98F3F01F180E790E0F9
:1012300060E06CD981E790E060E068D982E790E0F7
:1012400060E064D983E790E060E060D988E590E0F1
:1012500060E05CD989E590E060E058D98AE590E0EB
:1012600060E054D98BE590E060E050D980E890E0F0
:1012700060E04CD981E890E060E048D982E890E0F5
:1012800060E044D983E890E060E040D98091FF00BD
:10129000882309F068CE88E077D765CE80E190E0BA
:1012A000B8010AD9A2ECB0E0F80102C0319611965B
:1012B0009C91992391F180818917C1F36BCE80E2D3
:1012C00090E029DC80E390E022DD80E490E060E0C3
:1012D0001DD981E490E060E019D982E490E060E0FB
:1012E00015D983E490E060E011D980E590E060E0FA
:1012F0000DD981E590E060E009D982E590E060E0F9
:1013000005D983E590E060E001D98091FF00882352
:1013100009F02FCE88E038D72CCE80E290E0FBDBBE
:1013200080E390E0F4DC52DD80E590E060E0EED810
:1013300081E590E060E0EAD882E590E060E0E6D800
:1013400083E590E060E0E2D88091FF00882309F017
:0C13500021CE88E019D71ECEF894FFCF04
:10135C00456D707479212121004352554D00637203
:10136C00756D0053414D53554E47005343582D0056
:10137C004334323030005845524F5800434C5035AE
:10138C00313000434C5036303000E35865726F7882
:10139C0000205845524F582000A8CF5845524F585E
:1013AC0000205845524F5832200054797065313026
:1013BC00330054616C6C790050333536300058452D
:1013CC00524F58E300544F53484942410044454C56
:1013DC004C00455850004555520043484E004B4F69
:0C13EC0052002856657220302E33290074
:00000001FF
